:03000000020B26CA
:0C0B2600787FE4F6D8FD75812E020B6D7F
:100CF7003738392B3435362D3132332A43303D2FAF
:100CDE0002090000020B0000020D0000010F0001CE
:080CEE001500041000000000D5
:0F0C38008F807F057E00120C47D2B47F057E00AF
:100C4700D3EF9400EE940040147D6E7C00ED1D7090
:0D0C5700011CED4C70F7EF1F70E61E80E3EE
:010C6400226D
:030D07002480FF46
:080D0A00C2B5120C38C2B4227C
:080D1200D2B5120C38C2B42264
:100CC400C2A6C2A7C2B47F38120D0A7F0F120D0A42
:0A0CD4007F06120D0A7F01020D0ACF
:0F0C650074162515F8A601AF150515AB01E4FDB2
:020C7400AE07C9
:100C7600ED75F040A42E120D07EB643D6005AF0341
:030C8600120D123A
:010C89002248
:100CA800ED75F040A42F120D071209D7FF600C1242
:0B0CB8000D12740129F9E43AFA80EEF5
:010CC300220E
:1008FE008F238D24E50A640145097017E52475F0F0
:10090E0040A42480FF120D0A7F78120D12E4F5091F
:03091E00F50A22B5
:10092100E4F52CF52EEB4A700AAF2C052C74262F1A
:10093100F87630C3EA64809480500AC3E49BFBE4F8
:100941009AFA752E01EB4A602A7C007D0AAF03AE4C
:1009510002120A57ED2430FFAE2C052C74262EF816
:10096100A6077C007D0AAF03AE02120A57AA06ABA6
:100971000780D2E52E600AAF2C052C74262FF8765D
:100981002DE52475F040A4FF2523F525EF2480FFF4
:10099100120D0A7F3D120D12E5252480FF120D0A6A
:1009A100E4F52DE52DC3952C5026C3E52C952DFF9F
:1009B10074252FF8E6FF120D12C3E52C952DFF7457
:1009C100252FF8E6FF7416252DF8A607052D80D3EF
:0509D100E523252CFFC9
:0109D60022FE
:100C8A00D3EF9400EE940040147D6E7C00ED1D704D
:0D0C9A00011CED4C70F7EF1F70E61E80E3AB
:010CA700222A
:100BB2007523107524FEE4F522852490AF90530727
:100BC200F0EF64F0605D7F0A7E00120C8AAF9053F2
:100BD20007F0EF64F0604CAF90EF54F02490602D7A
:100BE20024C0601D24E0600E24F0702BE52225E075
:100BF20025E0F5238021E52225E025E004F5238088
:100C020016E52225E025E02402F523800AE52225C7
:100C1200E025E02403F523EF64F06007AF9053076B
:100C2200F080F4E52425E004F5240522E522C394AE
:050C3200044086AF2321
:010C3700229A
:10080000E4F522E522C3951540030208FD74162580
:1008100022F8E6FBC394304061EBD39439505BE59A
:1008200008B43D1A7F01120D0AE4F50BF50CF50D25
:10083000F50EF50FF513F512F511F510F515E50F99
:10084000701CAE0BAF0CFC7D0A1209F0EB24D0FD3E
:10085000EC34FFCD2FF50CED3EF50B0208F8AE0D94
:10086000AF0E7C007D0A1209F0EB24D0FDEC34FFC2
:10087000CD2FF50EED3EF50D807EEB642B600DEB7C
:10088000642D6008EB642A6003BB2F048B0F806823
:10089000EB643D7063E50F24D6602424FD601324CF
:1008A000FE602924047046E50C250EFFE50B350D8E
:1008B000800AC3E50C950EFFE50B950DFE8025AC77
:1008C0000DAD0EAE0BAF0C1209F08018E50E450D04
:1008D0007007F509750A018014AC0DAD0EAE0BAFB3
:1008E0000C120A02E48F138E12F511F510AA12AB46
:0D08F000137D017F011208FE05220208039E
:0108FD0022D8
:100A8D00120CC4120BB2A907E9C3941050F5E990EA
:100A9D000CF793F9B9431AE515D394004076151563
:100AAD007B20E4FDAF15120C747F10120D0A020BA2
:100ABD0021B93D08120C651208008058E508643D07
:100ACD00704FE9C394304022E9D39439501C7F0113
:100ADD00120D0AE4F50BF50CF50DF50EF50FF513EA
:100AED00F512F511F510F51580277F01120D0AE4A9
:100AFD00F515AA12AB13FDAF151208FE8F15E4F50F
:100B0D000BF50CF50DF50EF50FF513F512F511F5B9
:090B1D0010120C658908020A900F
:100B3200020A8DE493A3F8E493A34003F68001F242
:100B420008DFF48029E493A3F85407240CC8C333C4
:100B5200C4540F4420C8834004F456800146F6DF93
:100B6200E4800B0102040810204080900CDEE47E39
:100B7200019360BCA3FF543F30E509541FFEE49388
:100B8200A360010ECF54C025E060A840B8E493A34F
:100B9200FAE493A3F8E493A3C8C582C8CAC583CA7A
:100BA200F0A3C8C582C8CAC583CADFE9DEE780BE32
:010CF60000FD
:1009D700BB010689828A83E0225002E722BBFE021E
:0909E700E32289828A83E4932251
:1009F000EF8DF0A4A8F0CF8CF0A428CE8DF0A42E1B
:020A0000FE22D4
:100A0200BC000BBE0029EF8DF084FFADF022E4CCD8
:100A1200F875F008EF2FFFEE33FEEC33FCEE9DECA1
:100A2200984005FCEE9DFE0FD5F0E9E4CEFD22EDE7
:100A3200F8F5F0EE8420D21CFEADF075F008EF2F31
:100A4200FFED33FD4007985006D5F0F222C398FD22
:050A52000FD5F0EA22BF
:100A5700C2D5EC30E709B2D5E4C39DFDE49CFCEEBA
:100A670030E715B2D5E4C39FFFE49EFE120A02C326
:100A7700E49DFDE49CFC8003120A0230D507C3E421
:060A87009FFFE49EFE2229
:00000001FF
