:03000000020C559A
:0C0C5500787FE4F6D8FD758133020C9C1A
:100E54003738392B3435362D3132332A43303D2F50
:060E64004552524F5200FE
:100E1D00020D000002090000020B0000011200018A
:0C0E2D0018000413000000000225000063
:0F0D67008F807F057E00120D76D2B47F057E004F
:100D7600D3EF9400EE940040147D6E7C00ED1D7060
:0D0D8600011CED4C70F7EF1F70E61E80E3BE
:010D9300223D
:100DBC00E52975F040A4FF2528F52AEF2480FF12C1
:0C0DCC000DD87F3D120E76E52A2480FF32
:080DD800C2B5120D67C2B4227E
:0C0E6A00C3E5319532FF742A2FF8E6FF33
:080E7600D2B5120D67C2B422CF
:100E3A00C2A6C2A7C2B47F38120DD87F0F120DD82E
:0A0E4A007F06120DD87F01020DD8BB
:0F0D940074192518F8A601AF180518AB01E4FD76
:020DA300AE0799
:100DA500ED75F040A42E2480FF120DD8EB643D6054
:060DB50005AF03120E76EB
:010DBB002215
:100DE000ED75F040A42F2480FF120DD8120B06FFE2
:0E0DF000600C120E76740129F9E43AFA80EED6
:010DFE0022D2
:0C0800008F288D29E50E6401450D703D28
:10080C00F52AF52BE52975F040A42480FF120DD8AC
:10081C00E4F52AF52B7464252BF582740E352AF534
:10082C0083E493FF120E76052BE52B7002052AC389
:0A083C009405E52A6480948040DBF7
:0E084600020916E50E6402450D600302091C4E
:10085400F531F533EB4A700AAF310531742B2FF8BB
:100864007630EB4A602A7C007D0AAF03AE02120B9D
:1008740086ED2430FFAE310531742B2EF8A6077CAB
:10088400007D0AAF03AE02120B86AA06AB0780D224
:10089400E533600AAF310531742B2FF8762D120D34
:1008A400BCE4F532E532C39531501A120E6AC3E541
:1008B400319532FF742A2FF8E6FF74192532F8A611
:1008C40007053280DF7F2E120E76E4F532AE25AFB7
:1008D400267C007D0A120B86ED2430FF740F25322E
:1008E400F8A607AE25AF267C007D0A120B868E255E
:1008F4008F260532E532B403D4E4F532C37402958D
:1009040032240FF8E6FF120E760532E532C3940363
:0709140040EAE4F50DF50EC9
:01091B0022B9
:10091C00E4F531F533EB4A700AAF310531742B2F06
:10092C00F87630C3EA64809480500AC3E49BFBE4FD
:10093C009AFA753301EB4A602A7C007D0AAF03AE4C
:10094C0002120B86ED2430FFAE310531742B2EF8DC
:10095C00A6077C007D0AAF03AE02120B86AA06AB7B
:10096C000780D2E533600AAF310531742B2FF8764E
:10097C002D120DBCE4F532E532C39531501A120E2E
:10098C006AC3E5319532FF742A2FF8E6FF741925F6
:0D099C0032F8A607053280DFE5282531FF7F
:0109A900222B
:100DFF00D3EF9400EE940040147D6E7C00ED1D70D7
:0D0E0F00011CED4C70F7EF1F70E61E80E334
:010E1C0022B3
:100CE1007528107529FEE4F527852990AF905307E3
:100CF100F0EF64F0605D7F0A7E00120DFFAF90534C
:100D010007F0EF64F0604CAF90EF54F02490602D49
:100D110024C0601D24E0600E24F0702BE52725E03F
:100D210025E0F5288021E52725E025E004F5288048
:100D310016E52725E025E02402F528800AE5272588
:100D4100E025E02403F528EF64F06007AF90530736
:100D5100F080F4E52925E004F5290527E527C3946A
:050D6100044086AF28EC
:010D6600226A
:1009AA00E519642F6005E519B42A06750D00750E60
:1009BA0001E4F527E527C395184003020B057419CE
:1009CA002527F8E6FBC394304062EBD39439505C98
:1009DA00E508B43D1A7F01120DD8E4F509F50AF5C8
:1009EA000BF50CF512F516F515F514F513F518E5D2
:1009FA0012701CAE09AF0AFC7D0A120B1FEB24D041
:100A0A00FDEC34FFCD2FF50AED3EF509020B00AEE1
:100A1A000BAF0C7C007D0A120B1FEB24D0FDEC34CB
:100A2A00FFCD2FF50CED3EF50B020B00EB642B60AE
:100A3A000DEB642D6008EB642A6003BB2F058B1253
:100A4A00020B00EB643D6003020B00E51224D66042
:100A5A002724FD601624FE602C24046003020AF594
:100A6A00E50A250CFFE509350B800AC3E50A950C52
:100A7A00FFE509950BFE806AAC0BAD0CAE09AF0A17
:100A8A00120B1F805DE50C450B7007F50D750E0105
:100A9A008059AC0BAD0CAE09AF0A120B31AA04ABEC
:100AAA0005EB4A6032750D00750E02AC0BAD0CAE4B
:100ABA0009AF0A120B31E48F168E15F514F5137E61
:100ACA00037FE8AD03AC02120B1FAC0BAD0C120B8B
:100ADA00318E258F268014AC0BAD0CAE09AF0A12ED
:100AEA000B31E48F168E15F514F513AA15AB167D86
:0B0AFA00017F0112080005270209BE61
:010B050022CD
:100BBC00120E3A120CE1A907E9C3941050F5E99012
:100BCC000E5493F9B9431AE518D3940040761518CE
:100BDC007B20E4FDAF18120DA37F10120DD8020C70
:100BEC0050B93D08120D941209AA8058E508643DCD
:100BFC00704FE9C394304022E9D39439501C7F01E3
:100C0C00120DD8E4F509F50AF50BF50CF512F516ED
:100C1C00F515F514F513F51880277F01120DD8E49E
:100C2C00F518AA15AB16FDAF181208008F18E4F5CD
:100C3C0009F50AF50BF50CF512F516F515F514F585
:090C4C0013120D948908020BBF7C
:100C6100020BBCE493A3F8E493A34003F68001F2E2
:100C710008DFF48029E493A3F85407240CC8C33394
:100C8100C4540F4420C8834004F456800146F6DF63
:100C9100E4800B0102040810204080900E1DE47EC8
:100CA100019360BCA3FF543F30E509541FFEE49358
:100CB100A360010ECF54C025E060A840B8E493A31F
:100CC100FAE493A3F8E493A3C8C582C8CAC583CA4A
:100CD100F0A3C8C582C8CAC583CADFE9DEE780BE02
:010E390000B8
:100B0600BB010689828A83E0225002E722BBFE02ED
:090B1600E32289828A83E4932220
:100B1F00EF8DF0A4A8F0CF8CF0A428CE8DF0A42EEA
:020B2F00FE22A4
:100B3100BC000BBE0029EF8DF084FFADF022E4CCA8
:100B4100F875F008EF2FFFEE33FEEC33FCEE9DEC71
:100B5100984005FCEE9DFE0FD5F0E9E4CEFD22EDB7
:100B6100F8F5F0EE8420D21CFEADF075F008EF2F01
:100B7100FFED33FD4007985006D5F0F222C398FDF2
:050B81000FD5F0EA228F
:100B8600C2D5EC30E709B2D5E4C39DFDE49CFCEE8A
:100B960030E715B2D5E4C39FFFE49EFE120B31C3C6
:100BA600E49DFDE49CFC8003120B3130D507C3E4C1
:060BB6009FFFE49EFE22F9
:00000001FF
